:100000000C94C6010C94E3010C94E3010C94E301FD
:100010000C94E3010C94E3010C94E3010C94E301D0
:100020000C94E3010C94E3010C94E3010C94E301C0
:100030000C94E3010C94E3010C94E3010C94E301B0
:100040000C94E3010C94E3010C94E5010C94280258
:100050000C94E3010C94E3010C94E3010C94E30190
:100060000C94E3010C94E3010C94E3010C94E30180
:100070000C94E3010C94E3010C94E3010C94E30170
:100080000C94E3010C94E3010C94E301005EBCE2E8
:10009000613FDD83C29C7E20A3FD1F419DC3217F64
:1000A000FCA2401E5F01E3BD3E6082DC237D9FC158
:1000B000421CFEA0E1BF5D0380DE3C62BEE0025C4C
:1000C000DF81633D7C22C09E1D43A1FF4618FAA438
:1000D00027799BC584DA3866E5BB5907DB85673924
:1000E000BAE406581947A5FB7826C49A653BD98718
:1000F000045AB8E6A7F91B45C6987A24F8A6441A0C
:1001000099C7257B3A6486D85B05E7B98CD2306EF7
:10011000EDB3510F4E10F2AC2F7193CD114FADF3E3
:10012000702ECC92D38D6F31B2EC0E50AFF1134DD7
:10013000CE90722C6D33D18F0C52B0EE326C8ED0CB
:10014000530DEFB1F0AE4C1291CF2D73CA947628B7
:10015000ABF517490856B4EA6937D58B5709EBB5A3
:1001600036688AD495CB2977F4AA4816E9B7550B97
:1001700088D6346A2B7597C94A14F6A8742AC8968B
:10018000154BA9F7B6E80A54D7896B350000C1C0F2
:1001900081C1400101C3C003800241C201C6C00643
:1001A000800741C70005C1C581C4400401CCC00C13
:1001B000800D41CD000FC1CF81CE400E000AC1CAD3
:1001C00081CB400B01C9C009800841C801D8C018C3
:1001D000801941D9001BC1DB81DA401A001EC1DE43
:1001E00081DF401F01DDC01D801C41DC0014C1D433
:1001F00081D5401501D7C017801641D601D2C01253
:10020000801341D30011C1D181D0401001F0C03022
:10021000803141F10033C1F381F240320036C1F642
:1002200081F7403701F5C035803441F4003CC1FC12
:1002300081FD403D01FFC03F803E41FE01FAC03AD2
:10024000803B41FB0039C1F981F840380028C1E802
:1002500081E9402901EBC02B802A41EA01EEC02E42
:10026000802F41EF002DC1ED81EC402C01E4C02432
:10027000802541E50027C1E781E640260022C1E252
:1002800081E3402301E1C021802041E001A0C06062
:10029000806141A10063C1A381A240620066C1A642
:1002A00081A7406701A5C065806441A4006CC1AC12
:1002B00081AD406D01AFC06F806E41AE01AAC06AD2
:1002C000806B41AB0069C1A981A840680078C1B8C2
:1002D00081B9407901BBC07B807A41BA01BEC07E42
:1002E000807F41BF007DC1BD81BC407C01B4C07432
:1002F000807541B50077C1B781B640760072C1B252
:1003000081B3407301B1C071807041B00050C190A1
:10031000819140510193C053805241920196C05641
:10032000805741970055C19581944054019CC05C11
:10033000805D419D005FC19F819E405E005AC19AD1
:10034000819B405B0199C059805841980188C04801
:1003500080494189004BC18B818A404A004EC18E41
:10036000818F404F018DC04D804C418C0044C18431
:10037000818540450187C047804641860182C04251
:10038000804341830041C1818180404011241FBED0
:10039000CFEFD0E1DEBFCDBF12E0A0E0B1E0E4EDF1
:1003A000FDE202C005900D92AA30B107D9F71EE018
:1003B000AAE0B2E001C01D92AF31B107E1F70E949F
:1003C000E6080C94E8160C9400001F920F920FB6EA
:1003D0000F9211242F933F934F938F939F93EF93FB
:1003E000FF934CB180910C0690910D0620910A0666
:1003F00030910B06821B930B80509440C1F0E0912A
:100400000C06F0910D06F370E65FFD4F408380917E
:100410000C0690910D06019690930D0680930C06A4
:1004200080910C0690910D068050944061F0FF91F0
:10043000EF919F918F914F913F912F910F900FBE10
:100440000F901F90189510920D0610920C06EFCF8A
:100450001F920F920FB60F9211242F933F938F93F9
:100460009F93EF93FF9320910E0A30910F0A809192
:10047000100A9091110A2817390749F1E0910E0AE4
:10048000F0910F0AF370E25FF94FE08180910E0A5C
:1004900090910F0A019690930F0A80930E0A809113
:1004A0000E0A90910F0A8050944061F0ECB9FF91D0
:1004B000EF919F918F913F912F910F900FBE0F90D1
:1004C0001F90189510920F0A10920E0AEFCF5598B0
:1004D000EECF8BBB95BB95FD06C08091620080611D
:1004E000809362000895809162008F7E8093620005
:1004F00008950F931F938C01809162008E7F8093EB
:100500006200809162008260809362008FEF82BB04
:1005100011BA80916200806880936200C8010E94D5
:1005200069028091620081608093620017FD15C0AE
:1005300080916200826080936200C39AC49A85E0D1
:100540008A95F1F780B39091620092609093620077
:10055000C39AC49A1F910F910895809162008D7F74
:1005600080936200C39AC498EACF0F931F9302E668
:1005700010E0F80120812E7F2083208122602083DB
:100580002FEF22BB11BA0E946902F80180818F7D92
:10059000808385E08A95F1F780B3908190629083A3
:1005A0009081916090831F910F9108950F931F93F5
:1005B0008C01809162008E7F809362008091620046
:1005C0008260809362008FEF81BB809162008F77A1
:1005D0008093620062BBC8010E94690285E08A952F
:1005E000F1F78091620081608093620017FD2DC059
:1005F00080916200826080936200C39AC49A95E001
:10060000892F8A95F1F7809162008E7F8093620036
:1006100080916200826080936200C39AC49A9A9526
:10062000F1F7809162008068809362008FEF82BB57
:1006300011BA80E090E00E946902809162008160BE
:10064000809362001F910F910895809162008D7FC9
:1006500080936200C398C49AD2CFFF920F931F93E6
:10066000CF93DF938C01F62EEA011DBC1CBC069BC8
:1006700016C08CB59DB584599849C8F385E290E4BD
:1006800066E00E94D60280E360E070E00E94CA0E3D
:1006900080E0DF91CF911F910F91FF900895011598
:1006A000110531F081E390E40E947902F801808322
:1006B00084E290E46F2D0E94D60280E390E40E94D1
:1006C0007902982F209739F092959695969591708A
:1006D0008881892B88831DBC1CBC069906C08CB5FB
:1006E0009DB584599849C8F3C9CF81E0D2CF6F92A4
:1006F0007F928F929F92AF92BF92CF92DF92EF92B2
:10070000FF920F931F93DF93CF930F92CDB7DEB776
:100710005C016B0179018A011982C79A85E290E434
:1007200065E00E94D60282E390E40E94790285E2AD
:1007300090E461E00E94D60220E3E21625E7F2068B
:1007400020E0020720E0120708F06CC0C801B701E2
:1007500020E432E44FE050E00E9470162DE43FE4C4
:100760004BE150E00E948F16CA01B9010E940214A9
:100770003B014C012BEA3AEA4AEA50E40E94781124
:100780007B018C0120E030E040E85FE30E947E13B3
:1007900088230CF407C1C801B70120E030E04FE71F
:1007A00053E40E941E1318160CF0DFC0C401B301FD
:1007B00020E030E04AE754E40E9472123B014C0111
:1007C00020E030E04AE755E40E9478117B018C017B
:1007D00020E030E040E85FE30E947E1388230CF4C1
:1007E000AAC0C801B70120E03FEF4FE757E40E94DD
:1007F0001E1318160CF04EC0C401B30120E030E007
:1008000040E251E40E9478110E94A20FCB01672BB5
:1008100009F447C020E931E0F9013197F1F7019778
:10082000D9F73FC0C801B70128EE33E040E050E0FF
:100830000E948F16CA01B90120E432E44FE050E073
:100840000E9470162DE43FE44BE150E00E948F16A9
:10085000CA01B9010E9402143B014C0120E030E0C2
:100860004AE755E40E9478117B018C0120E030E0DA
:1008700040E85FE30E947E1388230CF45CC0C8014B
:10088000B70120E03FEF4FE757E40E941E13181610
:100890000CF472C0C801B7010E94A20FCB010197EE
:1008A000F1F784E290E460E00E94D60285E290E4F1
:1008B00061EC0E94D60280E090E060E88E010F5F5C
:1008C0001F4FA8010E942D03C114D104B9F18981E1
:1008D000882369F03EC00894C108D108C114D1042E
:1008E00069F189818823A9F50894A11CB11C80E0D5
:1008F00090E0F5016081A8010E942D03882359F73B
:1009000085E290E466E00E94D60280E360E070E059
:100910000E94CA0E80E00F90CF91DF911F910F913E
:10092000FF90EF90DF90CF90BF90AF909F908F900F
:100930007F906F90089561E070E0B0CF80E090E02C
:100940006FEFA8010E942D038823D1F289818823AB
:1009500059F185E290E466E00E94D60284E360E00B
:1009600070E00E94CA0E80E0D6CFC801B7010E9495
:10097000A20F6A95F1F795CFC401B30120E030E0F2
:1009800040E251E40E9478110E94A20FCB01672B34
:1009900009F487CF20E931E0F9013197F1F70197A8
:1009A000D9F77FCF61E0E5CF85E290E461ED0E9469
:1009B000D60284ED97E00197F1F71DBC1CBC82E3E1
:1009C00090E40E94790281FF06C08CB59DB58458E1
:1009D0009E41A8F395CFC79881E09DCF2F923F927B
:1009E0004F925F926F927F928F929F92AF92BF923F
:1009F000CF92DF92EF92FF920F931F93DF93CF93EB
:100A000000D000D0CDB7DEB74C016A835C834B8346
:100A10001901380185E290E465E00E94D60280E386
:100A2000C81685E7D80680E0E80680E0F80608F0FA
:100A30006CC0C701B60120E432E44FE050E00E94F0
:100A400070162DE43FE44BE150E00E948F16CA017E
:100A5000B9010E9402145B016C012BEA3AEA4AEAEE
:100A600050E40E9478117B018C0120E030E040E8E6
:100A70005FE30E947E1388230CF44BC1C801B701C9
:100A800020E030E04FE753E40E941E1318160CF0EC
:100A900023C1C601B50120E030E04AE754E40E94DA
:100AA00072125B016C0120E030E04AE755E40E94DD
:100AB00078117B018C0120E030E040E85FE30E9488
:100AC0007E1388230CF4A1C0C801B70120E03FEFDA
:100AD0004FE757E40E941E1318160CF04EC0C601D3
:100AE000B50120E030E040E251E40E9478110E941C
:100AF000A20FCB01672B09F447C020E931E0F901CF
:100B00003197F1F70197D9F73FC0C701B60128EE39
:100B100033E040E050E00E948F16CA01B90120E4A2
:100B200032E44FE050E00E9470162DE43FE44BE1C8
:100B300050E00E948F16CA01B9010E9402145B01A5
:100B40006C0120E030E04AE755E40E9478117B0117
:100B50008C0120E030E040E85FE30E947E138823B0
:100B60000CF453C0C801B70120E03FEF4FE757E452
:100B70000E941E1318160CF4B6C0C801B7010E94DB
:100B8000A20FCB010197F1F7EA81EE2309F074C0BF
:100B900085E290E465EC0E94D6025401CC24DD2469
:100BA000A114B104C104D10409F446C0EE24FF2409
:100BB00087012E010894411C511C0AC00894E11CB5
:100BC000F11C011D111DEA14FB040C051D05A0F507
:100BD000C20160E0A1010E942D038823A9F16114E4
:100BE000710461F0FDE0EF16F1040105110581F0DB
:100BF000FEE0EF16F10401051105A1F0FA81FF23D3
:100C0000E9F289810E94AE0ED9CF61E070E0B9CFE0
:100C1000298130E0F30180819181822B932B918394
:100C20008083ECCF99808824F30180819181882989
:100C3000992991838083E2CF80E090E060E0A10178
:100C40000E942D03882301F580E00F900F900F90F4
:100C50000F90CF91DF911F910F91FF90EF90DF9058
:100C6000CF90BF90AF909F908F907F906F905F904C
:100C70004F903F902F900895C69AB4016E5F7F4FBA
:100C80008EE20E94CA0E84CF85E290E465ED0E9458
:100C9000D60280E090E060E0A1010E942D0388234D
:100CA00099F280E390E40E94790282958F70282F58
:100CB00020952170EB81FC81908192239083869511
:100CC00086958170F1019081982B9083FA81FF23A2
:100CD00011F5C69881E0B9CFC801B7010E94A20FF3
:100CE0006A95F1F751CFC601B50120E030E040E24E
:100CF00051E40E9478110E94A20FCB01672B09F4E6
:100D000043CF20E931E0F9013197F1F70197D9F7A5
:100D10003BCF61E0E5CFEB81FC8180810E94AE0E8C
:100D2000F10180810E94AE0ED4CF2F923F924F925C
:100D30005F926F927F928F929F92AF92BF92CF926B
:100D4000DF92EF92FF920F931F93DF93CF9300D028
:100D500000D00F92CDB7DEB7882EA62E942E290193
:100D60001801370181E089831A8282E290E460E011
:100D70000E94D60283E290E461E00E94D60285E2FE
:100D800090E466E00E94D60286E290E460E00E9471
:100D9000D60280E090E06FEF0E94D60283E390E4F9
:100DA0000E947902182F86E290E46FEF0E94D6022B
:100DB00080E090E060E00E94D60283E390E40E942D
:100DC00079028F778F37E9F081E360E070E00E946D
:100DD000CA0E0F900F900F900F900F90CF91DF9150
:100DE0001F910F91FF90EF90DF90CF90BF90AF9049
:100DF0009F908F907F906F905F904F903F902F903B
:100E00000895812F90E08F779070892BE9F682E327
:100E100090E40E94790280FD2CC185E290E465E0B7
:100E20000E94D60228EE33E040E951E0CA01019762
:100E3000F1F721503040D1F783E390E40E9479022A
:100E400087FF1DC11DBC1CBC10E08CB59DB584582E
:100E50009E4130F01DBC1CBC1F5F1F3008F01AC142
:100E600082E390E40E94790281FFEFCF1DBC1CBC9D
:100E700010E08CB59DB584589E4130F01DBC1CBC63
:100E80001F5F1F3008F006C182E390E40E947902E0
:100E900081FDEFCF992029F0F2018081882309F4A8
:100EA00006C1882009F001C16A2DA11061E088E324
:100EB00090E0AE014F5F5F4F9E012E5F3F4F00E01D
:100EC00010E0FEE3CF2EFEE6DF2EF7E0EF2EF12C52
:100ED0000E94EE04882309F47CCF1D82882011F43F
:100EE000A110AA949981992309F425C18A818823A4
:100EF00009F021C1AA2009F039C1992009F41BC1C8
:100F00002D81A22FB0E0F201EA0FFB1F808181301A
:100F100009F444C1E1E0E81508F02CC160E082E08A
:100F200090E0AE014F5F5F4F9E012E5F3F4F00E0AC
:100F300010E072E4C72E73E2D72EE12CF12C0E9450
:100F4000EE04882309F445CFF1E0F81508F018C144
:100F500002E0B02E9981992309F46EC08A8188231A
:100F600009F06AC0AA2009F0B6C0992009F464C04B
:100F70001C821B822D81A22FB0E0F201EA0FFB1F21
:100F800080818B1509F4B9C0B81408F0ACC060E0DA
:100F900080E190E0AE014F5F5F4F9E012E5F3F4FBB
:100FA0008E010D5F1F4FF2E4CF2EF3E2DF2EE12C16
:100FB000F12C0E94EE04882309F40BCFB81410F032
:100FC000A110AA94B3949981992329F28A81882344
:100FD00011F6AA2009F08DC0992009F4BCCFED814B
:100FE000AE2FB0E0F201EA0FFB1F80818B1509F4F0
:100FF000A5C08B819C81B81408F097C060E0019671
:10100000AE014F5F5F4F9E012E5F3F4F00E010E04B
:1010100072E4C72E73E2D72EE12CF12C0E94EE046D
:10102000882309F4D6CEB81410F0A110AA94B39472
:101030009981992309F092CF85E290E466E00E94BD
:10104000D60224EF31E040E951E0CA010197F1F7FF
:1010500021503040D1F72D81222329F0992019F415
:10106000AA2009F495C08FE260E070E00E94CA0EE9
:10107000B0CE83E360E070E00E94CA0EAACE85E2A3
:1010800090E466E00E94D60282E360E070E00E9495
:10109000CA0E9FCE85E290E466E00E94D60280E30D
:1010A00060E070E00E94CA0E94CE60E000CFF101D3
:1010B00000811181C301B80120EA39ED48E050E018
:1010C0000E947703882309F484CE600E711E9A94DF
:1010D000F1E0FD8303CF1C821B82992009F04ACFE7
:1010E000B81408F454CF6A2DAA2009F451CF61E056
:1010F0004FCF992009F47DCF72CFAA0FBB1FA20D4D
:10110000B31D0D911C91C301B8012DEF35E440E0F2
:1011100050E00E947703882309F45BCE600E711EB5
:101120008D818F5F8D839A9449CF6A2DAA2009F40F
:1011300066CF61E064CFBB24B3940DCFAA0FBB1F71
:10114000A20DB31D0D911C91C301B8012DEF35E423
:1011500040E050E00E947703882309F43ACE600E05
:10116000711EFD81FF5FFD839A945DCF992009F484
:10117000D1CEC6CE6A2DAA2009F4D1CE61E0CFCE61
:10118000AA2009F4E5CEAA9482E0B82E9981E3CE94
:1011900086E360E070E00E94CA0E1BCEAA0FBB1F60
:1011A000A20DB31D0D911C91C301B8012DEF35E4C3
:1011B00040E050E00E947703882309F40ACE600ED5
:1011C000711E8D818F5F8D839A94BECE2F923F9238
:1011D0004F925F926F927F928F929F92AF92BF9247
:1011E000CF92DF92EF92FF920F931F93DF93CF93F3
:1011F000CDB7DEB7A0970FB6F894DEBF0FBECDBF58
:1012000078940E94EE0D87B3806C87BB87EB809348
:1012100061001FEF1093620012981A9A12BB11BA64
:1012200080E090E00E9469021ABB14BB87B388611A
:1012300087BB88B3886188BBC798C69810920F0A8D
:1012400010920E0A1092110A1092100A10920B06B8
:1012500010920A0610920D0610920C060E94970E2C
:1012600080E060E070E00E94CA0E55E0252E40E963
:10127000442E41E0542E8FB589628FBD21E02EBDF2
:1012800031E0E32EF12C012D112DDD24AA24BB2405
:10129000F89420910A0630910B0680910C069091EB
:1012A0000D062817390709F471C0E0910A06F0917C
:1012B0000B06F370E65FFD4F8081282F30E08091B0
:1012C0000A0690910B06019690930B0680930A06EE
:1012D00080910A0690910B068050944009F468C0F2
:1012E00078944FEF2F3F340719F0822F0E94F30EAE
:1012F0008091150A882309F060C08FB589628FBD7F
:1013000031E03EBD40E1E41647E2F40640E0040768
:1013100040E01407A8F1DD2009F03FC00894A11CAB
:10132000B11C8EE6A816B10414F0DD24D39494E623
:10133000A916B10454F0ECE9FFEFAE0EBF1EB9BC24
:10134000A8BC24E630E0A20EB31EDD2011F18EE62B
:1013500090E08A199B0985319105DCF48B30910569
:101360002CF0E4E1F0E0E81BF90BCF01880F991FA6
:101370009093790080937800EE24FF24870188CF32
:101380000894E11CF11C011D111D82CF2FEF3FEFCE
:10139000A7CFEE24FF2487017BCF0894A108B108D2
:1013A000A114B10421F6EE24FF248701DD2470CFBF
:1013B00010920B0610920A0693CF1092150A109203
:1013C000790010927800809178009091790099BD11
:1013D00088BD88B599B58FBD2EBC8091170A833220
:1013E00009F4C1C2843228F58B3009F442C28C3032
:1013F00008F0A1C0863009F46EC2873008F035C30A
:101400008530A1F480E065E070E00E94CA0E83E0C0
:101410000E94AE0E8BEF0E94AE0E83E00E94AE0ED5
:101420008BEF0E94AE0E83E00E94AE0EC698C79866
:1014300022CF883209F455C2893208F065C085325E
:1014400009F491C2853208F433C1863209F430C1FF
:10145000873261F79091180A8091190A8E831D8254
:10146000E92EFF242D813E81E22AF32A90911A0A67
:1014700080911B0A88871F82092F10E08F81988531
:10148000082B192BC69A9FEF92BB11BA809162006C
:101490008068809362008091620081608093620026
:1014A000F7FC81C380916200826080936200011525
:1014B000110509F481C380E090E0EBBAF5BA222D62
:1014C0002A95F1F760B30E94910F015010400894E3
:1014D000E11CF11C0115110581F78C01809162005E
:1014E00082608093620080E090E00E94690288E060
:1014F00062E070E00E94CA0E802F0E94AE0E812F23
:101500000E94AE0EC69892CF853309F4B7C08633D9
:1015100008F078C28D3209F089CF8091180A609165
:10152000190A40E020E030E000E010E0EE24FF2463
:101530000E9495067BCF813109F461C0823108F0A9
:10154000CDC28D3009F072CF3091180A2091190A5E
:1015500090911A0A80911B0A8A8F198EE92EFF2416
:10156000898D9A8DE82AF92AC79AE114F10409F4C1
:101570003FC02C8F1B8E032F10E0EB8DFC8D0E2BAC
:101580001F2BCC24DD24F601E85EF54F9481809179
:1015900062008E7F809362008091620082608093FF
:1015A0006200FFEFF1BB92BBC601800F911F0E944A
:1015B0006902809162008B7F80936200822D8A9500
:1015C000F1F7809162008460809362002FEF22BB6C
:1015D00011BA80E090E00E9469028091620081600F
:1015E000809362000894C11CD11CEC14FD0459F6D0
:1015F000C7988EE060E070E00E94CA0E17CF82E1CB
:1016000064E070E00E94CA0EC69A80E090E00E94FA
:101610006902822D8A95F1F781B186958695817050
:101620000E94AE0E80E094E00E946902822D8A95AD
:10163000F1F781B18695869581700E94AE0E80E0AB
:1016400098E00E946902822D8A95F1F781B1869512
:10165000869581700E94AE0E80E09CE00E94690237
:10166000822D8A95F1F781B18695869581700E94C9
:10167000AE0E80E090E00E946902D8CE4091180A38
:101680000091180A8091180AE091180A10E0075E8C
:10169000154FF0E0EE0FFF1FE80FF11DE75EF54F6D
:1016A00080E060E029E13AE07F010E949506BECE2D
:1016B0003091180A2091190A90911A0A80911B0AF8
:1016C0008E871D86092F10E08D859E85082B192B8E
:1016D000C79A0115110509F472C2288B1F86E32EE3
:1016E000FF24EF85F889EE2AFF2A8CE1882E8AE014
:1016F000982E332466247724209100013091010133
:10170000A701422353235701640118A21F8E06C06C
:10171000C5018223932348175907A1F4F60180815C
:101720008F3F29F08F8D98A1019698A38F8F0894F1
:10173000A11CB11C015010400894C11CD11C011502
:10174000110531F7EF8DF8A1EF2B39F401151105D3
:1017500009F435C275014601CFCF80E090E860EF13
:101760000E94D6028AEA9AE86AEA0E94D60285E5D1
:1017700095E865E50E94D60280E090E865E20E9467
:10178000D6026F8D615080E090E80E94D60206C0BC
:101790000894E11CF11C0894811C911CF4016081E7
:1017A0006F3F69F0C70190680E94D602F401308053
:1017B0002F8D38A12150304038A32F8F37018F8DC6
:1017C00098A1892B29F780E090E869E20E94D6026F
:1017D0001DBC1CBCF301F068F8A3EF8F8CB59DB560
:1017E00088509D4308F03EC08F8D98A10E947902D9
:1017F000E82E8F8D98A10E947902F82E8F8D98A1E6
:101800000E947902982E8F2D8E2586FF18C0892D73
:101810008F2586FF14C0E1FCD9C1E5FEDFCF8AE247
:1018200063E070E00E94CA0E8E2D0E94AE0E8F2DD6
:101830000E94AE0E892D0E94AE0EC798F7CD8F8DF7
:1018400098A10E947902F82E8F8D98A10E947902AA
:10185000F81621F63F1409F479CF8CB59DB5885060
:101860009D4310F28AE260E070E00E94CA0EC798C1
:10187000DDCDE090180AF090190A90911A0A809133
:101880001B0A8A8B198A092F10E029893A89022BB1
:10189000132BC69A8CE0B8010E94CA0E01151105DF
:1018A000A1F0FC8A1B8AFF248B899C89E82AF92AEB
:1018B000C7010E94B5020E94AE0E0150104008946C
:1018C000E11CF11C0115110599F780E090E00E94E0
:1018D0006902C698ABCD81E060E070E00E94CA0E5C
:1018E000A5CD3091180A2091190A90911A0A809179
:1018F0001B0A8E8B1D8AE92EFF24ED89FE89EE2AB4
:10190000FF2AC69AE114F10409F462C1288F1F8AE4
:10191000C32EDD242F89388DC22AD32A00E010E09F
:10192000C6010E94B502682FC8010E94910F8C0168
:101930000894E108F1080894C11CD11CE114F104D9
:1019400079F7F82E80E090E00E9469028CE062E076
:1019500070E00E94CA0E8F2D0E94AE0E812F0E9451
:10196000AE0EC69863CDC79A80E090E860EF0E9403
:10197000D6028AEA9AE86AEA0E94D60285E595E8E4
:1019800065E50E94D6028AEA9AE860E80E94D602DB
:101990008AEA9AE86AEA0E94D60285E595E865E552
:1019A0000E94D60280E090E860E30E94D6021DBC4F
:1019B0001CBC8CB59DB58A51974BE8F4EE24EA9493
:1019C000FE2C02C0E12EFF2480E090E80E94790204
:1019D000182F4FEFE4164FEFF40641F090E0EFEFD1
:1019E000EE22FF248E159F0509F4D1C08CB59DB55C
:1019F0008A51974B38F38CE260E070E00E94CA0E87
:101A0000C79814CD873349F08E3F09F00FCDF89475
:101A100014BEE0E0F8EF099509CD9091180A809185
:101A2000190A8E8F1D8E892F90E0ED8DFE8D8E2BE5
:101A30009F2B8230910508F4CEC020E096958795C3
:101A40002F5F82309105D0F78FEF9FEF02C0880F94
:101A5000991F2A95E2F7909301018093000188E392
:101A600060E070E00E94CA0EE1CC8730E1F189307D
:101A700009F0DCCC3091180A2091190A90911A0AC9
:101A800080911B0A8A871986E92EFF24E985FA8549
:101A9000EE2AFF2AC79AE114F104C9F02C871B86AD
:101AA000032F10E02B853C85022B132BCC24DD2447
:101AB000F601E85EF54FC601800F911F64810E9418
:101AC000D6020894C11CD11CEC14FD0489F7C798F8
:101AD0008AE060E070E00E94CA0EA8CC8331B1F1C8
:101AE000823209F0A3CCE090180AF090190A909184
:101AF0001A0A80911B0A8A831982092F10E08981B2
:101B00009A81082B192BC69A88E0B8010E94CA0E48
:101B10000115110509F4D9CEFC821B82FF24EB814B
:101B2000FC81EE2AFF2AC7010E9479020E94AE0EB4
:101B3000015010400894E11CF11C0115110599F7A2
:101B400080E090E00E946902C69870CCC79AC69A5D
:101B5000809162008E7F809362008091620082603B
:101B60008093620028EE33E0C2010197F1F7215023
:101B70003040D1F780916200816080936200C79805
:101B8000C69884E160E070E00E94CA0E4FCC1F3F0F
:101B9000B1F08BE261E070E00E94CA0E812F0E94DA
:101BA000AE0EC79843CC809162008D7F8093620017
:101BB0000115110509F07FCC00E010E08FCC8AE020
:101BC00060E070E00E94CA0EC79830CC89E228CE4F
:101BD000FF2410E0B7CE8FEF9FEF3DCF19B81092E2
:101BE000900088E98AB9E5E9F0E080818660808329
:101BF0000895482FF8948091100A9091110A20912D
:101C00000E0A30910F0A821B930B8050944019F1F9
:101C1000E091100AF091110AF370E25FF94F4083EE
:101C20008091100A9091110A01969093110A809365
:101C3000100A8091100A9091110A8050944031F05E
:101C4000559A20E030E07894C90108951092110A65
:101C50001092100AF5CF2FEF3FEF7894C901089545
:101C60001F93982F82958F708A3080F4282F205DE3
:101C7000892F8F708A3080F0182F195C822F0E9474
:101C8000F90D812F0E94F90D1F910895282F295CCD
:101C9000892F8F708A3080F7182F105D822F0E9455
:101CA000F90D812F0E94F90D1F910895CF93DF93B5
:101CB000EC018881882341F05D9BFECF0E94F90DE5
:101CC000219688818823C1F7DF91CF910895AF9243
:101CD000BF92CF92DF92EF92FF920F931F93CF9319
:101CE000DF93EC015A016B01411551056105710546
:101CF00099F0EE24FF248701FE01EE0DFF1D808187
:101D00000E94F90D0894E11CF11C011D111DEA143B
:101D1000FB040C051D0580F3DF91CF911F910F91FE
:101D2000FF90EF90DF90CF90BF90AF90089510920A
:101D30001C0E10921B0E1092150A10921A0E089586
:101D40001F93182F8091160A612F0E94890F80938C
:101D5000160A812F0E94F90D1F9108950E94A00E6E
:101D600080911D0E90911E0E019690931E0E8093F1
:101D70001D0E20911D0E30911E0E8091180E909117
:101D8000190E2817390709F008958091160A0E9444
:101D9000F90D0895FF920F931F93F82E8B01109267
:101DA000160A86E40E94A00E8F2D0E94A00E802F9E
:101DB0000E94A00E812F0E94A00E1093190E009376
:101DC000180E10921E0E10921D0E8091180E9091FA
:101DD000190E892B21F48091160A0E94F90D1F918A
:101DE0000F91FF9008951F93182F80911A0E88234A
:101DF00021F0163411F01F91089510921A0E80915F
:101E00001B0E90911C0E892B21F41092140A109233
:101E1000150A8091140A612F0E94890F8093140A79
:101E200080911B0E90911C0E8130910509F440C0E9
:101E300081309105A8F4163441F081E080931A0EA8
:101E400082E060E070E00E94CA0E80911B0E9091CB
:101E50001C0E019690931C0E80931B0E1F910895EB
:101E60008230910541F1039769F1E0911B0EF091E9
:101E70001C0E349784E0E030F807A8F58091120A30
:101E80009091130AE817F90750F18091120A909186
:101E9000130AE817F907C9F68091140A882381F517
:101EA00081E08093150A10921C0E10921B0EA3CF96
:101EB0001093170ACACF812F90E09093130A809352
:101EC000120AC3CF2091120A3091130A912F80E099
:101ED000822B932B9093130A8093120AB6CFE85E5D
:101EE000F54F1083B2CF10921C0E10921B0E81E0A2
:101EF00080931A0E84E060E070E00E94CA0E7BCFEF
:101F000081E080931A0E83E060E070E00E94CA0EC8
:101F1000CACF6827ECE8F0E0E60FF11DE4918E2FC0
:101F20000895E62FF0E0E827F927F070EE0FFF1F85
:101F3000E457FE4F25913491892F99272827392777
:101F4000C9010895EF92FF920F931F937B018C01BB
:101F500020E030E040E05FE40E944E1388238CF0E4
:101F6000C801B70120E030E040E05FE40E941A11B0
:101F70000E94AE139B01AC012050304040405048BD
:101F800006C0C801B7010E94AE139B01AC01B901A4
:101F9000CA011F910F91FF90EF900895A0E0B0E06B
:101FA000E4EDFFE00C94B116DC012B01FA019C91E9
:101FB000923008F439C1EB018881823008F433C1D2
:101FC000943069F4843009F02FC111969C911197D7
:101FD0008981981709F428C1A2E0B1E025C18430B5
:101FE00009F421C18230A9F4923009F01DC19A018F
:101FF000AD0188E0EA010990AE01E90109929E0174
:102000008150C1F7E201898111969C9189238183D6
:1020100008C1923009F407C112962D903C90139795
:10202000EB018A819B811496AD90BD90CD90DC90A0
:102030001797EC80FD800E811F819101281B390BC1
:10204000B90137FF04C066277727621B730B603224
:1020500071050CF061C0121613066CF537014801CA
:10206000062E04C096948794779467940A94D2F7C6
:1020700021E030E040E050E004C0220F331F441F55
:10208000551F6A95D2F721503040404050402E21D4
:102090003F2140235123211531054105510521F0F0
:1020A00021E030E040E050E079018A01E628F7289D
:1020B000082919293CC0232BD1F1260E371E3501E2
:1020C0004601062E04C096948794779467940A94E8
:1020D000D2F721E030E040E050E004C0220F331F8F
:1020E000441F551F6A95D2F7215030404040504060
:1020F0002A213B214C215D21211531054105510546
:1021000021F021E030E040E050E059016A01A628CA
:10211000B728C828D9280BC0821593052CF01C01BC
:10212000AA24BB24650103C0EE24FF248701119675
:102130009C91D20111968C91981709F445C099236E
:1021400039F0A80197012A193B094C095D0906C01D
:10215000A60195012E193F09400B510B57FD08C0F0
:1021600011823382228224833583468357831DC0A4
:1021700081E081833382228288279927DC01821BB8
:10218000930BA40BB50B84839583A683B7830DC0F3
:10219000220F331F441F551F2483358346835783E3
:1021A0008281938101979383828324813581468143
:1021B0005781DA01C9010197A109B1098F5F9F4FCA
:1021C000AF4FBF4328F30BC0918333822282EA0CC6
:1021D000FB1C0C1D1D1DE482F5820683178383E022
:1021E0008083248135814681578157FF1AC0C901F8
:1021F000AA2797FDA095BA2F81709070A070B0703B
:102200005695479537952795822B932BA42BB52B65
:1022100084839583A683B783828193810196938378
:102220008283DF0101C0D201CD01CDB7DEB7E2E18B
:102230000C94CD16A0E2B0E0E0E2F1E10C94BD1602
:1022400069837A838B839C832D833E834F83588756
:10225000E9E0EE2EF12CEC0EFD1ECE010196B70149
:102260000E949F158E010F5E1F4FCE010596B8018B
:102270000E949F158A8991E089278A8BC701B8013E
:10228000AE01475E5F4F0E94CE0F0E94CA14A09617
:10229000E6E00C94D916A0E2B0E0E1E5F1E10C949F
:1022A000BD1669837A838B839C832D833E834F8302
:1022B0005887F9E0EF2EF12CEC0EFD1ECE010196B1
:1022C000B7010E949F158E010F5E1F4FCE0105962C
:1022D000B8010E949F15C701B801AE01475E5F4F6C
:1022E0000E94CE0F0E94CA14A096E6E00C94D91664
:1022F000A0E2B0E0EEE7F1E10C94B11669837A83D5
:102300008B839C832D833E834F835887CE01019618
:10231000BE01675F7F4F0E949F15CE010596BE01EB
:102320006F5E7F4F0E949F159985923088F0898952
:102330008230C8F0943019F4823051F404C08430F3
:1023400029F4923081F482E091E0C6C0923049F4E1
:1023500020E09A858A89981321E02A87CE01099680
:10236000BBC0823049F420E09A858A89981321E025
:102370002A8BCE014196B0C02D843E844F8458886C
:102380006D887E888F88988CEE24FF248701AA248C
:10239000BB24650140E050E060E070E0E0E0F0E088
:1023A000C10181709070892BE9F0E60CF71C081DC3
:1023B000191D9A01AB012A0D3B1D4C1D5D1D80E0CE
:1023C00090E0A0E0B0E0E614F7040805190520F459
:1023D00081E090E0A0E0B0E0BA01A901480F591FE8
:1023E0006A1F7B1FAA0CBB1CCC1CDD1C97FE08C0FF
:1023F00081E090E0A0E0B0E0A82AB92ACA2ADB2A4E
:102400003196E032F10549F0660C771C881C991C66
:102410005694479437942794C3CFFA85EA892B8939
:102420003C898B859C85280F391F2E5F3F4F17C035
:10243000CA0181709070892B61F016950795F79409
:10244000E79480E090E0A0E0B0E8E82AF92A0A2BBF
:102450001B2B76956795579547952F5F3F4F77FDD7
:10246000E7CF0CC0440F551F661F771F17FD416053
:10247000EE0CFF1C001F111F21503040403090E037
:10248000590790E0690790E4790760F32B8F3C8F40
:10249000DB01CA018F779070A070B0708034910515
:1024A000A105B10561F447FD0AC0E114F10401057D
:1024B000110529F0405C5F4F6F4F7F4F40781A8EB7
:1024C000FE1711F081E08A8F4D8F5E8F6F8F78A39A
:1024D00083E0898FCE0149960E94CA14A096E2E15A
:1024E0000C94CD16A8E1B0E0E8E7F2E10C94B9163F
:1024F00069837A838B839C832D833E834F835887A4
:10250000B9E0EB2EF12CEC0EFD1ECE010196B701C9
:102510000E949F158E010F5E1F4FCE010596B801D8
:102520000E949F152985223008F47EC039893230F7
:1025300010F4B8017CC08A859A8989278A8724305B
:1025400011F0223031F4231709F06EC062E071E01F
:102550006EC0343039F41D861E861F86188A1C868C
:102560001B8604C0323021F484E08987B7015FC044
:102570002B853C858B899C89281B390B3C872B87B5
:10258000ED84FE840F851889AD88BE88CF88D88CED
:10259000EA14FB040C051D0540F4EE0CFF1C001FA3
:1025A000111F215030403C872B8720E030E040E075
:1025B00050E080E090E0A0E0B0E460E070E0EA1479
:1025C000FB040C051D0540F0282B392B4A2B5B2BF7
:1025D000EA18FB080C091D09B695A79597958795EC
:1025E000EE0CFF1C001F111F6F5F7F4F6F317105D5
:1025F00031F7DA01C9018F779070A070B070803424
:102600009105A105B10561F427FD0AC0E114F104AB
:102610000105110529F0205C3F4F4F4F5F4F207897
:102620002D873E874F87588BBE01675F7F4FCB0159
:102630000E94CA146896EAE00C94D516A8E1B0E0AE
:10264000E4E2F3E10C94BD1669837A838B839C8367
:102650002D833E834F83588789E0E82EF12CEC0EC2
:10266000FD1ECE010196B7010E949F158E010F5EDF
:102670001F4FCE010596B8010E949F1589858230B3
:1026800040F08989823028F0C701B8010E941716EE
:1026900001C08FEF6896E6E00C94D916A8E1B0E08F
:1026A000E4E5F3E10C94BD1669837A838B839C8304
:1026B0002D833E834F83588789E0E82EF12CEC0E62
:1026C000FD1ECE010196B7010E949F158E010F5E7F
:1026D0001F4FCE010596B8010E949F158985823053
:1026E00040F08989823028F0C701B8010E9417168E
:1026F00001C08FEF6896E6E00C94D916A8E1B0E02F
:10270000E4E8F3E10C94BD1669837A838B839C83A0
:102710002D833E834F83588789E0E82EF12CEC0E01
:10272000FD1ECE010196B7010E949F158E010F5E1E
:102730001F4FCE010596B8010E949F1589858230F2
:1027400040F08989823028F0C701B8010E9417162D
:1027500001C081E06896E6E00C94D916ACE0B0E0E8
:10276000E4EBF3E10C94C11669837A838B839C8339
:10277000CE010196BE016B5F7F4F0E949F158D8138
:10278000823061F1823050F1843021F48E818823CF
:1027900051F12EC02F81388537FD20C06E812F3139
:1027A00031051CF06623F9F023C08EE190E0821B16
:1027B000930B29853A854B855C8504C056954795D2
:1027C000379527958A95D2F76623B1F050954095B5
:1027D000309521953F4F4F4F5F4F0EC020E030E0C6
:1027E00040E050E009C02FEF3FEF4FEF5FE704C03C
:1027F00020E030E040E050E8B901CA012C96E2E068
:102800000C94DD16A8E0B0E0E8E0F4E10C94B91611
:102810007B018C01611571058105910519F482E038
:10282000898360C083E089838EE1C82ED12CDC824D
:10283000CB82ED82FE820F831887C801B7010E9408
:102840007B14FC013197F7FF3BC0222733272E1B57
:102850003F0B57016801022E04C0D694C794B79469
:10286000A7940A94D2F740E050E060E070E081E085
:1028700090E0A0E0B0E004C0880F991FAA1FBB1F22
:102880002A95D2F70197A109B1098E219F21A02392
:10289000B1230097A105B10521F041E050E060E0CF
:1028A00070E04A295B296C297D294D835E836F8303
:1028B00078878EE190E08E1B9F0B9C838B8312C0E8
:1028C000309781F00E2E04C0EE0CFF1C001F111F6C
:1028D0000A94D2F7ED82FE820F831887CE1ADF0AA0
:1028E000DC82CB821A82CE0101960E94CA142896FD
:1028F000EAE00C94D516EF92FF920F931F937B01A1
:102900008C0180E0E81680E0F80681E0080780E0AE
:10291000180788F48FEFE816F1040105110531F06E
:1029200028F088E090E0A0E0B0E017C080E090E000
:10293000A0E0B0E012C080E0E81680E0F80680E099
:10294000080781E0180728F088E190E0A0E0B0E0F7
:1029500004C080E190E0A0E0B0E020E230E040E0A0
:1029600050E0281B390B4A0B5B0B04C016950795EA
:10297000F794E7948A95D2F7F701E65FFE4F8081DE
:10298000281B310941095109C9011F910F91FF907D
:10299000EF900895DF92EF92FF920F931F93FC0147
:1029A000E480F58006811781D1808081823048F4EF
:1029B00080E090E0A0E1B0E0E82AF92A0A2B1B2B86
:1029C000A5C0843009F49FC0823021F4EE24FF2496
:1029D000870105C0E114F1040105110519F4E0E0D7
:1029E000F0E096C0628173819FEF623879070CF046
:1029F0005BC022E83FEF261B370B2A3131052CF054
:102A000020E030E040E050E02AC0B801A701022EEB
:102A100004C076956795579547950A94D2F781E05B
:102A200090E0A0E0B0E004C0880F991FAA1FBB1F70
:102A30002A95D2F70197A109B1098E219F21A023E0
:102A4000B1230097A105B10521F081E090E0A0E05D
:102A5000B0E09A01AB01282B392B4A2B5B2BDA0112
:102A6000C9018F779070A070B07080349105A10576
:102A7000B10539F427FF09C0205C3F4F4F4F5F4F2E
:102A800004C0215C3F4F4F4F5F4FE0E0F0E020304B
:102A9000A0E03A07A0E04A07A0E45A0710F0E1E0FE
:102AA000F0E079018A0127C06038710564F5FB0107
:102AB000E158FF4FD801C7018F779070A070B070B8
:102AC00080349105A105B10539F4E7FE0DC080E41D
:102AD00090E0A0E0B0E004C08FE390E0A0E0B0E0C0
:102AE000E80EF91E0A1F1B1F17FF05C01695079554
:102AF000F794E794319687E016950795F794E79455
:102B00008A95D1F705C0EE24FF248701EFEFF0E0AE
:102B10006E2F679566276795902F9F77D794DD2452
:102B2000D7948E2F8695492F462B582F5D29B701B4
:102B3000CA011F910F91FF90EF90DF900895FC0163
:102B4000DB01408151812281622F6F7770E0221F6B
:102B50002227221F9381892F880F822B282F30E074
:102B6000991F9927991F11969C931197211531054B
:102B7000A9F5411551056105710511F482E037C0D1
:102B800082E89FEF13969C938E9312979A01AB0164
:102B900067E0220F331F441F551F6A95D1F783E06A
:102BA0008C930DC0220F331F441F551F12968D9119
:102BB0009C911397019713969C938E9312972030B4
:102BC00080E0380780E0480780E4580758F31496FF
:102BD0002D933D934D935C93179708952F3F3105A7
:102BE00079F4411551056105710519F484E08C9360
:102BF000089564FF03C081E08C9312C01C9210C042
:102C00002F57304013963C932E93129783E08C936A
:102C100087E0440F551F661F771F8A95D1F77064B0
:102C200014964D935D936D937C93179708951F931E
:102C3000DC01FB019C91923008F447C08081823016
:102C400008F443C0943051F411961C91843099F5E6
:102C50008181682F70E0611B71093FC0843021F0D1
:102C6000923031F48230B9F18181882389F12DC00D
:102C700011961C9111978230F1F081811817D9F4C7
:102C800012962D913C91139782819381821793071D
:102C900094F028173907BCF014968D919D910D90F2
:102CA000BC91A02D24813581468157812817390791
:102CB0004A075B0718F4112341F00AC082179307F3
:102CC000A407B50740F4112319F061E070E005C0D6
:102CD0006FEF7FEF02C060E070E0CB011F910895BD
:102CE000629FD001739FF001829FE00DF11D649FF0
:102CF000E00DF11D929FF00D839FF00D749FF00D7C
:102D0000659FF00D9927729FB00DE11DF91F639F1C
:102D1000B00DE11DF91FBD01CF0111240895A1E2FD
:102D20001A2EAA1BBB1BFD010DC0AA1FBB1FEE1F45
:102D3000FF1FA217B307E407F50720F0A21BB30B90
:102D4000E40BF50B661F771F881F991F1A9469F70C
:102D500060957095809590959B01AC01BD01CF0168
:102D600008952F923F924F925F926F927F928F922F
:102D70009F92AF92BF92CF92DF92EF92FF920F930A
:102D80001F93CF93DF93CDB7DEB7CA1BDB0B0FB614
:102D9000F894DEBF0FBECDBF09942A8839884888D1
:102DA0005F846E847D848C849B84AA84B984C88467
:102DB000DF80EE80FD800C811B81AA81B981CE0F5E
:102DC000D11D0FB6F894DEBF0FBECDBFED01089543
:042DD000F894FFCFA5
:102DD400C0FF000000000000000000010202030325
:102DE400030304040404040404040505050505059B
:102DF4000505050505050505050506060606060679
:102E0400060606060606060606060606060606065E
:102E14000606060606060606060607070707070748
:102E2400070707070707070707070707070707072E
:102E3400070707070707070707070707070707071E
:102E4400070707070707070707070707070707070E
:102E540007070707070707070707080808080808F8
:102E640008080808080808080808080808080808DE
:102E740008080808080808080808080808080808CE
:102E840008080808080808080808080808080808BE
:102E940008080808080808080808080808080808AE
:102EA400080808080808080808080808080808089E
:102EB400080808080808080808080808080808088E
:102EC400080808080808080808080808080808087E
:0A2ED40008080808080808080808A4
:00000001FF
